:100000000C941D010C94A31A0C943A010C943A011F
:100010000C943A010C943A010C943A010C943A0174
:100020000C943A010C943A010C943A010C943A0164
:100030000C943A010C943A010C943A010C943A0154
:100040000C943A010C943A010C9425050C943A0155
:100050000C943A010C943A010C943A010C943A0134
:100060000C943A010C943A01331266136613DF0EB6
:1000700066136613661366136613661366136613B8
:1000800066136613FB0F350D66131711661366139F
:100090006613661366136613661366136613661398
:1000A0006613661366136613C112661366136D0F2B
:1000B00066136613510E6613661366136613661392
:1000C000661366138910C30D6613A51166136613B4
:1000D000661353131119021A021A7916021A021A18
:1000E000021A021A021A021A021A021A021A021A30
:1000F00059176515021A3518021A021A021A021A3D
:10010000021A021A021A021A021A021A021A021A0F
:10011000021A021A7F19021A021AEB16021A021A9E
:100120002316021A021A021A021A021A021A021AD2
:10013000C717CD15021AA318021A021A021AED19CE
:1001400000407A10F35A00A0724E18090010A5D48E
:10015000E80000E87648170000E40B54020000CAEB
:100160009A3B000000E1F505000080969800000031
:1001700040420F000000A086010000001027000090
:100180000000E803000000006400000000000A0016
:10019000000000000100000000002C76D888DC6719
:1001A0004F0823DFC1DFAE59E1B1B796E5E3E45371
:1001B000C63AE651997696E8E6C28426EB898C9B8E
:1001C00062ED407C6FFCEFBC9C9F40F2BAA56FA52E
:1001D000F490055A2AF75C936B6CF9676DC11BFCB0
:1001E000E0E40D47FEF520E6B500D0ED902E0300CB
:1001F000943577050080841E080000204E0A000018
:1002000000C80C333333330F986E12831141EF8DD6
:100210002114893BE65516CFFEE6DB18D1844B3816
:100220001BF77C1D901DA4BBE424203284725E2247
:100230008100C9F124ECA1E53D2711241FBECFEFB9
:10024000D8E0DEBFCDBF17E0A0E0B1E0E2E0FEE322
:1002500002C005900D92A630B107D9F728E0A6E0BC
:10026000B7E001C01D92AA32B207E1F70E94331A2B
:100270000C94FF1E0C94000080E387B91092B90023
:100280008CE08093B80084E08093BC00089584EAF9
:100290008093BC008091BC008823E4F7089584EA31
:1002A0008093BC008091BC008823E4F70895ECEBB8
:1002B000F0E08081846980830895611102C08E7F9F
:1002C00001C081608093BB0084E88093BC00809172
:1002D000BC008823E4F708958093BB0084E88093F2
:1002E000BC008091BC008823E4F7089520E4829F3D
:1002F000C001112484688093BC008091BC008823D5
:10030000E4F78091BB0090E008958093BB0084E8FF
:100310008093BC008091BC008823E4F70895EBEB48
:10032000F0E080818260808384E88093BC008091CB
:10033000BC008823E4F78FE99FE00197F1F700C044
:100340000000EBEBF0E080818D7F808384E8809378
:10035000BC008091BC008823E4F70895CF93C82F98
:10036000C068EBEBF0E080818E7F808384E880932F
:10037000BC008091BC008823E4F7EBEBF0E08081C7
:100380008F70808384E88093BC008091BC008823B8
:10039000E4F7EBEBF0E080819C2F907F892B80834A
:1003A00084E88093BC008091BC008823E4F70E941D
:1003B0008F01EBEBF0E080818F70808384E8809385
:1003C000BC008091BC008823E4F7EBEBF0E02081D7
:1003D00030E1C39FC0011124822B808384E8809385
:1003E000BC008091BC008823E4F70E948F01CF916C
:1003F0000895CF93C82FEBEBF0E08081816080837C
:1004000084E88093BC008091BC008823E4F7EBEB88
:10041000F0E080818F70808384E88093BC008091BD
:10042000BC008823E4F7EBEBF0E080819C2F907F09
:10043000892B808384E88093BC008091BC00882352
:10044000E4F70E948F01EBEBF0E080818F708083F6
:1004500084E88093BC008091BC008823E4F7EBEB38
:10046000F0E0208130E1C39FC0011124822B808302
:1004700084E88093BC008091BC008823E4F70E944C
:100480008F01CF910895CF93C82FEBEBF0E08081DF
:100490008E7F808384E88093BC008091BC00882399
:1004A000E4F7EBEBF0E080818F70808384E8809349
:1004B000BC008091BC008823E4F7EBEBF0E0808186
:1004C0009C2F907F892B808384E88093BC0080914F
:1004D000BC008823E4F70E948F01EBEBF0E0808101
:1004E0008F70808384E88093BC008091BC00882357
:1004F000E4F7EBEBF0E0208130E1C39FC001112471
:10050000822B808384E88093BC008091BC00882388
:10051000E4F70E948F01CF910895CF93DF93EC0110
:1005200003C021960E94F90188818111FACFDF91E1
:10053000CF910895EBEBF0E090819E7F908394E85B
:100540009093BC009091BC009923E4F7EBEBF0E0B2
:1005500090819F70908394E89093BC009091BC0030
:100560009923E4F7EBEBF0E09081807F892B808387
:1005700084E88093BC008091BC008823E4F70E944B
:100580008F01089580E30E949A028FE19EE4019713
:10059000F1F700C0000080E30E949A028FE891E02A
:1005A0000197F1F700C0000080E20E949A0288E201
:1005B0000E9443028CE00E94430281E00E944302B9
:1005C0000895CF92DF92EF92FF920F931F93CF93F4
:1005D000DF930E9447018091100790911107892BAA
:1005E00009F066C160E0809100010E945D018AEA25
:1005F0000E946C010E944F0161E0809100010E9405
:100600005D0181E00E947601092E000CAA0BBB0B54
:10061000BA2FA92F982F882780931207909313073A
:10062000A0931407B093150781E00E947601C2E100
:10063000D7E028813981820F931F90931D07809303
:100640001C0781E00E947601092E000CAA0BBB0B4F
:10065000BA2FA92F982F88278093120790931307FA
:10066000A0931407B093150781E00E9476012881BA
:100670003981820F931F90938C0780938B0781E0C1
:100680000E947601092E000CAA0BBB0BBA2FA92FD2
:10069000982F88278093120790931307A09314072D
:1006A000B093150781E00E94760128813981820F7D
:1006B000931F90938E0780938D0781E00E947601AF
:1006C000092E000CAA0BBB0BBA2FA92F982F882735
:1006D0008093120790931307A0931407B093150704
:1006E00081E00E94760128813981820F931F9093C7
:1006F0005B0780935A0781E00E947601092E000C67
:10070000AA0BBB0BBA2FA92F982F8827809312070B
:1007100090931307A0931407B093150781E00E94EC
:10072000760128813981820F931F90934907809326
:10073000480781E00E947601092E000CAA0BBB0B32
:10074000BA2FA92F982F8827809312079093130709
:10075000A0931407B093150781E00E9476012881C9
:100760003981820F931F90931F0780931E0781E0AA
:100770000E947601092E000CAA0BBB0BBA2FA92FE1
:10078000982F88278093120790931307A09314073C
:10079000B093150781E00E94760128813981820F8C
:1007A000931F9093C1078093C00781E00E94760158
:1007B000092E000CAA0BBB0BBA2FA92F982F882744
:1007C0008093120790931307A0931407B093150713
:1007D00081E00E94760128813981820F931F9093D6
:1007E00093078093920781E00E947601092E000C06
:1007F000AA0BBB0BBA2FA92F982F8827809312071B
:1008000090931307A0931407B093150781E00E94FB
:10081000760128813981820F931F9093620780931C
:10082000610781E00E947601092E000CAA0BBB0B28
:10083000BA2FA92F982F8827809312079093130718
:10084000A0931407B093150781E00E9476012881D8
:100850003981820F931F9093C7078093C60781E069
:100860000E947601092E000CAA0BBB0BBA2FA92FF0
:10087000982F88278093120790931307A09314074B
:10088000B093150780E00E94760128813981820F9C
:10089000931F90931B0780931A070E945701809122
:1008A00010079091110701969093110780931007FC
:1008B0000E9457010E94470160E0809100010E9460
:1008C0005D0184EF0E946C018EE20E946C018FE456
:1008D00096E40197F1F700C000000E944F0160E02C
:1008E000809100010E945D0186EF0E946C010E94D0
:1008F0004F0161E0809100010E945D0181E00E9452
:1009000076018093600780E00E9476018093530710
:100910000E9457012091600730E0322F22278091FA
:100920005307280F311DA901330F660B770B409336
:1009300033075093340760933507709336078091DF
:100940001E0790911F079A01AB01281B390B410923
:100950005109A0914807B09149070E94481C6B01BA
:100960007C010B2EBFE0F694E794D794C794BA9518
:10097000D1F7B02DC0926907D0926A07E0926B0759
:10098000F0926C078091C60760E070E0782F770FD7
:10099000770F770F80911A0790911B07A701960197
:1009A000280F391F411D511D80E090E00E94201C3E
:1009B00020934207309343074093440750934507E1
:1009C000D701C601820F931FA41FB51F8093540740
:1009D00090935507A0935607B09357070896A11D0B
:1009E000B11DBC01CD01689413F896958795779554
:1009F00067951694D1F70E94111B2DEC3CEC4CEC42
:100A00005DE30E949F1B60930C0770930D0780931A
:100A10000E0790930F0700E217E021E042E00E94EA
:100A2000761C8DE090E00E94E71AC8010E94C41A6B
:100A30008DE090E00E94E71ADF91CF911F910F9116
:100A4000FF90EF90DF90CF9008951F920F920FB616
:100A50000F9211248F939F938FE39CE90197F1F7F5
:100A600000C000008091C6008093AF078091C00055
:100A700085FFFCCF81E090E090935207809351076F
:100A80009F918F910F900FBE0F901F901895CF934D
:100A9000DF93EC018FE39CE90197F1F700C00000C0
:100AA0001092AE071092AD071092470710924607BA
:100AB00010920B0710920A0710920907109208076C
:100AC00010925207109251071092AF07ECC08FE1BD
:100AD0009EE40197F1F700C00000809151079091CA
:100AE0005207892BD1F38091AF0790ED980F9A3080
:100AF00018F0883009F0D3C0883009F477C020910D
:100B000008073091090722303105E1F490E00E9496
:100B1000E71A8091AF0780538093AF072091AD070C
:100B20003091AE07A901480F511D5093AE07409375
:100B3000AD078091080790910907019690930907E6
:100B4000809308078091080790910907019759F54C
:100B50008091AF0790E00E94E71A8091AF0790E084
:100B6000C09790934707809346079C01220F331F3D
:100B7000880F991F880F991F880F991F820F931F45
:100B80002091AD073091AE07820F931F9093AE076F
:100B90008093AD0780910807909109070196909383
:100BA0000907809308078091080790910907892B0E
:100BB00009F075C08091AF0790E00E94E71A80911C
:100BC000AF0780538093AF0754E6859FC00111247F
:100BD0009093AE078093AD07809108079091090725
:100BE0000196909309078093080759C080910807E0
:100BF000909109078330910509F5019790930907B2
:100C0000809308078091AD079091AE076AE070E08D
:100C10000E940C1CCB01880F991F660F771F660F6F
:100C2000771F660F771F680F791F7093AE07609369
:100C3000AD0788E090E00E94E71A31C0823091054C
:100C4000F1F40197909309078093080740914607B4
:100C50005091470766EF64039001659F300D1124A2
:100C60008091AD079091AE07820F931F9093AE07CE
:100C70008093AD0788E090E00E94E71A10C08130B1
:100C8000910569F4019790930907809308071092E2
:100C9000AE071092AD0788E090E00E94E71A10922C
:100CA0005207109251078091AF078D3009F00FCF96
:100CB0002091AD073091AE07232B81F48D3071F474
:100CC00081E090E090930B0780930A078DEB95E00D
:100CD0000E94C41A8DE090E00E94E71A2091080754
:100CE0003091090721303105B1F480910A079091C4
:100CF0000B07892B81F48091AD079091AE0764E6D4
:100D000070E00E940C1C7093AE076093AD07709367
:100D100059076093580722303105B1F480910A07D2
:100D200090910B07892B81F48091AD079091AE07CC
:100D30006AE070E00E940C1C7093AE076093AD07F0
:100D400070935907609358072330310521F580913E
:100D50000A0790910B07892BF1F48091AD079091D0
:100D6000AE07C817D9072CF09093590780935807FE
:100D700012C08DE090E00E94E71A84ED95E00E9499
:100D8000C41A8DE090E00E94E71A81E090E0909311
:100D90000B0780930A07DF91CF910895CF93DF93DC
:100DA0009C01909391078093900764E670E00E9405
:100DB0000C1CFB017093680760936707CAE0D0E0E2
:100DC000C901BE010E940C1C9C01CB01BE010E9406
:100DD0000C1C90939B0780939A073093CB0720932A
:100DE000CA07CF01C0960E94E71A80919A07909196
:100DF0009B07C0960E94E71A8091CA079091CB0783
:100E0000C0960E94E71ADF91CF9108958DE090E09F
:100E10000E94E71A82EF94E00E94C41A8DE090E0ED
:100E20000E94E71A8DEC94E00E94C41A8DE090E0D5
:100E30000E94E71A84EA94E00E94C41A8DE090E0D0
:100E40000E94E71A81E994E00E94C41A8DE090E0C4
:100E50000E94E71A89E694E00E94C41A8DE090E0AF
:100E60000E94E71A86E594E00E94C41A8DE090E0A3
:100E70000E94E71A8EE294E00E94C41A8DE090E08E
:100E80000E94E71A83E194E00E94C41A8DE090E08A
:100E90000E94E71A88EF93E00E94C41A8DE090E068
:100EA0000E94E71A81EE93E00E94C41A8DE090E060
:100EB0000E94E71A8AEC93E00E94C41A8DE090E049
:100EC0000E94E71A8FE895E00E94C41A8DE090E036
:100ED0000E94E71A0895F999FECF92BD81BD60BDC9
:100EE0008FB384608FBB8FB382608FBB0895F999F5
:100EF000FECF92BD81BD8FB381608FBB80B5089559
:100F00000E94EE1A82EF95E00E94C41A8DE090E0F4
:100F10000E94E71A82EF94E00E94C41A8DE090E0EC
:100F20000E94E71A8091AF078A3709F466C084E609
:100F300090E00E9447051092B1071092B00752C08E
:100F400080910A0790910B07892B09F03FC080918F
:100F5000580790915907909327088093260880E0BE
:100F600090E00E94770780938F0790E060912608B9
:100F7000709127088617970761F080E090E00E9443
:100F80006B078DE090E00E94E71A82E095E00E94F6
:100F9000C41A81E090E09093B1078093B0078DE090
:100FA00090E00E94E71A8AE993E00E94C41A8091B7
:100FB0002608909127080E94CE068DE096E00E94B8
:100FC000C41A8DE090E00E94E71A0CC084E795E017
:100FD0000E94C41A8DE090E00E94E71A84E690E037
:100FE0000E9447058091B0079091B107892B09F4C1
:100FF000A7CF1092B1071092B0078DE090E00E9449
:10100000E71A8DEC94E00E94C41A8DE090E00E94F3
:10101000E71A84E690E00E9447051092B10710920B
:10102000B00752C080910A0790910B07892B09F0F5
:101030003FC080915807909159079093CF078093B4
:10104000CE0782E090E00E94770780938F0790E0C0
:101050006091CE077091CF078617970761F082E005
:1010600090E00E946B078DE090E00E94E71A82E01A
:1010700095E00E94C41A81E090E09093B1078093BC
:10108000B0078DE090E00E94E71A83E593E00E94AC
:10109000C41A8091CE079091CF070E94CE068DE0B2
:1010A00096E00E94C41A8DE090E00E94E71A0CC0FE
:1010B00084E795E00E94C41A8DE090E00E94E71A50
:1010C00084E690E00E9447058091B0079091B107B7
:1010D000892B09F4A7CF1092B1071092B0078DE0C9
:1010E00090E00E94E71A84EA94E00E94C41A8DE01E
:1010F00090E00E94E71A84E690E00E944705109273
:10110000B1071092B00752C080910A0790910B0767
:10111000892B09F03FC0809158079091590790930F
:10112000AC078093AB0784E090E00E947707809340
:101130008F0790E06091AB077091AC078617970717
:1011400061F084E090E00E946B078DE090E00E94E7
:10115000E71A82E095E00E94C41A81E090E0909343
:10116000B1078093B0078DE090E00E94E71A8FEFFF
:1011700092E00E94C41A8091AB079091AC070E9444
:10118000CE0681E196E00E94C41A8DE090E00E94B4
:10119000E71A0CC084E795E00E94C41A8DE090E045
:1011A0000E94E71A84E690E00E9447058091B0070C
:1011B0009091B107892B09F4A7CF1092B107109233
:1011C000B0078DE090E00E94E71A81E994E00E9468
:1011D000C41A8DE090E00E94E71A8FE590E00E942B
:1011E00047051092B1071092B00752C080910A07CC
:1011F00090910B07892B09F03FC08091580790917F
:10120000590790935D0780935C0786E090E00E9409
:10121000770780938F0790E060915C0770915D077E
:101220008617970761F086E090E00E946B078DE0DB
:1012300090E00E94E71A82E095E00E94C41A81E0E3
:1012400090E09093B1078093B0078DE090E00E940A
:10125000E71A8EEC92E00E94C41A80915C0790918C
:101260005D070E94CE0681E196E00E94C41A8DE0DF
:1012700090E00E94E71A0CC084E795E00E94C41A2F
:101280008DE090E00E94E71A84E690E00E94470516
:101290008091B0079091B107892B09F4A7CF1092E4
:1012A000B1071092B0078DE090E00E94E71A89E63E
:1012B00094E00E94C41A8DE090E00E94E71A8FE546
:1012C00090E00E9447051092B1071092B00752C0FB
:1012D00080910A0790910B07892B09F03FC08091FC
:1012E00058079091590790935F0780935E0788E0B5
:1012F00090E00E94770780938F0790E060915E07EF
:1013000070915F078617970761F088E090E00E9470
:101310006B078DE090E00E94E71A82E095E00E9462
:10132000C41A81E090E09093B1078093B0078DE0FC
:1013300090E00E94E71A8FE892E00E94C41A809120
:101340005E0790915F070E94CE0681E196E00E94C1
:10135000C41A8DE090E00E94E71A0CC084E795E083
:101360000E94C41A8DE090E00E94E71A84E690E0A3
:101370000E9447058091B0079091B107892B09F42D
:10138000A7CF1092B1071092B0078DE090E00E94B5
:10139000E71A86E594E00E94C41A8DE090E00E946E
:1013A000E71A84E690E00E9447051092B107109278
:1013B000B00752C080910A0790910B07892B09F062
:1013C0003FC080915807909159079093D10780931F
:1013D000D0078AE090E00E94770780938F0790E023
:1013E0006091D0077091D1078617970761F08AE066
:1013F00090E00E946B078DE090E00E94E71A82E087
:1014000095E00E94C41A81E090E09093B107809328
:10141000B0078DE090E00E94E71A86E592E00E9416
:10142000C41A8091D0079091D1070E94CE0681E125
:1014300096E00E94C41A8DE090E00E94E71A0CC06A
:1014400084E795E00E94C41A8DE090E00E94E71ABC
:1014500084E690E00E9447058091B0079091B10723
:10146000892B09F4A7CF1092B1071092B0078DE035
:1014700090E00E94E71A8EE294E00E94C41A8DE088
:1014800090E00E94E71A84E690E00E9447051092DF
:10149000B1071092B00752C080910A0790910B07D4
:1014A000892B09F03FC0809158079091590790937C
:1014B000B7078093B6078CE090E00E94770780938F
:1014C0008F0790E06091B6077091B707861797076E
:1014D00061F08CE090E00E946B078DE090E00E944C
:1014E000E71A82E095E00E94C41A81E090E09093B0
:1014F000B1078093B0078DE090E00E94E71A8DE07D
:1015000092E00E94C41A8091B6079091B7070E949A
:10151000CE0681E196E00E94C41A8DE090E00E9420
:10152000E71A0CC084E795E00E94C41A8DE090E0B1
:101530000E94E71A84E690E00E9447058091B00778
:101540009091B107892B09F4A7CF1092B10710929F
:10155000B0078DE090E00E94E71A83E194E00E94DA
:10156000C41A8DE090E00E94E71A84E690E00E94A1
:1015700047051092B1071092B00752C080910A0738
:1015800090910B07892B09F03FC0809158079091EB
:1015900059079093C9078093C8078EE090E00E9496
:1015A000770780938F0790E06091C8077091C90713
:1015B0008617970761F08EE090E00E946B078DE040
:1015C00090E00E94E71A82E095E00E94C41A81E050
:1015D00090E09093B1078093B0078DE090E00E9477
:1015E000E71A86EC91E00E94C41A8091C807909196
:1015F000C9070E94CE0684E196E00E94C41A8DE0DD
:1016000090E00E94E71A0CC084E795E00E94C41A9B
:101610008DE090E00E94E71A84E690E00E94470582
:101620008091B0079091B107892B09F4A7CF109250
:10163000B1071092B0078DE090E00E94E71A88EFA2
:1016400093E00E94C41A8DE090E00E94E71A84E6BD
:1016500090E00E9447051092B1071092B00752C067
:1016600080910A0790910B07892B09F03FC0809168
:1016700058079091590790939F0780939E0780E1A8
:1016800090E00E94770780938F0790E060919E071B
:1016900070919F078617970761F080E190E00E94A4
:1016A0006B078DE090E00E94E71A82E095E00E94CF
:1016B000C41A81E090E09093B1078093B0078DE069
:1016C00090E00E94E71A8FE791E00E94C41A80918F
:1016D0009E0790919F070E94CE0684E196E00E94AB
:1016E000C41A8DE090E00E94E71A0CC084E795E0F0
:1016F0000E94C41A8DE090E00E94E71A84E690E010
:101700000E9447058091B0079091B107892B09F499
:10171000A7CF1092B1071092B0078DE090E00E9421
:10172000E71A81EE93E00E94C41A8DE090E00E94D7
:10173000E71A84E690E00E9447051092B1071092E4
:10174000B00752C080910A0790910B07892B09F0CE
:101750003FC0809158079091590790939D078093BF
:101760009C0782E190E00E94770780938F0790E0CA
:1017700060919C0770919D078617970761F082E141
:1017800090E00E946B078DE090E00E94E71A82E0F3
:1017900095E00E94C41A81E090E09093B107809395
:1017A000B0078DE090E00E94E71A80E491E00E948B
:1017B000C41A80919C0790919D070E94CE068AE1F1
:1017C00096E00E94C41A8DE090E00E94E71A0CC0D7
:1017D00084E795E00E94C41A8DE090E00E94E71A29
:1017E00084E690E00E9447058091B0079091B10790
:1017F000892B09F4A7CF1092B1071092B0078DE0A2
:1018000090E00E94E71A8AEC93E00E94C41A8DE0EF
:1018100090E00E94E71A84E690E00E94470510924B
:10182000B1071092B00752C080910A0790910B0740
:10183000892B09F03FC080915807909159079093E8
:1018400099078093980784E190E00E94770780933E
:101850008F0790E060919807709199078617970716
:1018600061F084E190E00E946B078DE090E00E94BF
:10187000E71A82E095E00E94C41A81E090E090931C
:10188000B1078093B0078DE090E00E94E71A81E0F5
:1018900091E00E94C41A80919807909199070E9444
:1018A000CE068AE196E00E94C41A8DE090E00E9484
:1018B000E71A0CC084E795E00E94C41A8DE090E01E
:1018C0000E94E71A84E690E00E9447058091B007E5
:1018D0009091B107892B09F4A7CF1092B10710920C
:1018E000B0078DE090E00E94E71A1092070710926F
:1018F00006078FE895E00E94C41A10C08FE39CE9A8
:101900000197F1F700C000008091AF078A3731F4EA
:1019100081E090E090930707809306078091060787
:1019200090910707019751F78091AF070E94990C9A
:101930000895CF93C82F0E94EE1A8FE196E00E947F
:10194000C41A8DE090E00E94E71A89E396E00E94B5
:10195000C41A8DE090E00E94E71A8FE496E00E949E
:10196000C41A8DE090E00E94E71A84E895E00E9496
:10197000C41A8091510790915207019709F05EC0F7
:10198000C13659F028F4C13441F0C934D9F044C00B
:10199000C936C1F0C137A9F13FC00E94EE1A1092BA
:1019A0005207109251078091AF070E9480078091E3
:1019B000510790915207892BD1F38091AF070E9474
:1019C00080073CC00E94EE1A1092520710925107F5
:1019D00084E696E00E94C41A8DE090E00E94E71A27
:1019E0000E9406078091AF070E94200D8091510749
:1019F00090915207892BD1F38091AF070E94200D5F
:101A00001DC00E94EE1A0E94F31A0E94FC1A109246
:101A100052071092510712C01092520710925107AC
:101A20008091AF070E94990C8091510790915207C5
:101A3000892BD1F38091AF070E94990CCF91089523
:101A4000E82F8091510790915207019709F064C6E1
:101A50008E2F90E0FC01E554F109E633F10508F022
:101A600035C6EC5CFF4F0C94421C0E94EE1A83EBCF
:101A700093E00E94C41A8DE090E00E94E71A84E689
:101A800090E00E94470580910A0790910B07892BEF
:101A900009F076C0809158079091590790932708D4
:101AA0008093260880E090E00E94770780938F075C
:101AB00090E060912608709127088617970761F0DB
:101AC00080E090E00E946B078DE090E00E94E71AB2
:101AD00082E095E00E94C41A109207071092060750
:101AE0008DE090E00E94E71A8AE993E00E94C41A10
:101AF00080912608909127080E94CE068DE096E0FE
:101B00000E94C41A8DE090E00E94E71A8FE895E0E9
:101B10000E94C41A10C08FE39CE90197F1F700C03E
:101B200000008091AF078A3731F481E090E0909314
:101B30000707809306078091060790910707019792
:101B400051F70E94EE1A109252071092510783E348
:101B500095E00E94C41A8DE090E00E94E71A0E946E
:101B600006078091AF070E94200D80915107909148
:101B70005207892BD1F38091AF070E94200D089561
:101B80000E948D1308950E94EE1A87E793E00E9449
:101B9000C41A8DE090E00E94E71A84E690E00E946B
:101BA000470580910A0790910B07892B09F076C0B1
:101BB00080915807909159079093CF078093CE0753
:101BC00082E090E00E94770780938F0790E0609119
:101BD000CE077091CF078617970761F082E090E0FB
:101BE0000E946B078DE090E00E94E71A82E095E08A
:101BF0000E94C41A10920707109206078DE090E029
:101C00000E94E71A83E593E00E94C41A8091CE07F0
:101C10009091CF070E94CE068DE096E00E94C41AF4
:101C20008DE090E00E94E71A8FE895E00E94C41AC8
:101C300010C08FE39CE90197F1F700C0000080918C
:101C4000AF078A3731F481E090E0909307078093E3
:101C500006078091060790910707019751F70E94A8
:101C6000EE1A109252071092510783E395E00E94FA
:101C7000C41A8DE090E00E94E71A0E940607809146
:101C8000AF070E94200D8091510790915207892B38
:101C9000D1F38091AF070E94200D08950E948D130B
:101CA00008950E94EE1A8EE293E00E94C41A8DE01D
:101CB00090E00E94E71A84E690E00E944705809138
:101CC0000A0790910B07892B09F076C0809158077D
:101CD000909159079093AC078093AB0784E090E014
:101CE0000E94770780938F0790E06091AB07709117
:101CF000AC078617970761F084E090E00E946B07BD
:101D00008DE090E00E94E71A82E095E00E94C41AFC
:101D100010920707109206078DE090E00E94E71AE4
:101D20008FEF92E00E94C41A8091AB079091AC07AC
:101D30000E94CE0681E196E00E94C41A8DE090E0F8
:101D40000E94E71A8FE895E00E94C41A10C08FE342
:101D50009CE90197F1F700C000008091AF078A3736
:101D600031F481E090E0909307078093060780911B
:101D7000060790910707892B51F30E94EE1A1092E3
:101D800052071092510783E395E00E94C41A8DE038
:101D900090E00E94E71A0E9406078091AF070E9418
:101DA000200D8091510790915207892BD1F380919A
:101DB000AF070E94200D08950E948D1308950E9480
:101DC000EE1A8AEE92E00E94C41A8DE090E00E9422
:101DD000E71A8FE590E00E94470580910A079091ED
:101DE0000B07892B09F076C080915807909159070D
:101DF00090935D0780935C0786E090E00E947707F0
:101E000080938F0790E060915C0770915D07861763
:101E1000970761F086E090E00E946B078DE090E00C
:101E20000E94E71A82E095E00E94C41A1092070708
:101E3000109206078DE090E00E94E71A8EEC92E087
:101E40000E94C41A80915C0790915D070E94CE06A3
:101E500081E196E00E94C41A8DE090E00E94E71AAA
:101E60008FE895E00E94C41A10C08FE39CE90197A7
:101E7000F1F700C000008091AF078A3731F481E0AC
:101E800090E0909307078093060780910607909152
:101E90000707892B51F30E94EE1A109252071092F5
:101EA000510783E395E00E94C41A8DE090E00E9400
:101EB000E71A0E9406078091AF070E94200D8091CB
:101EC000510790915207892BD1F38091AF070E945F
:101ED000200D08950E948D1308950E94EE1A8DEA38
:101EE00092E00E94C41A8DE090E00E94E71A8FE50C
:101EF00090E00E94470580910A0790910B07892B7B
:101F000009F076C0809158079091590790935F0728
:101F100080935E0788E090E00E94770780938F07A8
:101F200090E060915E0770915F078617970761F0F8
:101F300088E090E00E946B078DE090E00E94E71A35
:101F400082E095E00E94C41A1092070710920607DB
:101F50008DE090E00E94E71A8FE892E00E94C41A98
:101F600080915E0790915F070E94CE0681E196E026
:101F70000E94C41A8DE090E00E94E71A8FE895E075
:101F80000E94C41A10C08FE39CE90197F1F700C0CA
:101F900000008091AF078A3731F481E090E09093A0
:101FA0000707809306078091060790910707892B02
:101FB00051F30E94EE1A109252071092510783E3D8
:101FC00095E00E94C41A8DE090E00E94E71A0E94FA
:101FD00006078091AF070E94200D809151079091D4
:101FE0005207892BD1F38091AF070E94200D0895ED
:101FF0000E948D1308950E94EE1A82E792E00E94DB
:10200000C41A8DE090E00E94E71A84E690E00E94F6
:10201000470580910A0790910B07892B09F076C03C
:1020200080915807909159079093D1078093D007DA
:102030008AE090E00E94770780938F0790E060919C
:10204000D0077091D1078617970761F08AE090E07A
:102050000E946B078DE090E00E94E71A82E095E015
:102060000E94C41A10920707109206078DE090E0B4
:102070000E94E71A86E592E00E94C41A8091D00778
:102080009091D1070E94CE0681E196E00E94C41A89
:102090008DE090E00E94E71A8FE895E00E94C41A54
:1020A00010C08FE39CE90197F1F700C00000809118
:1020B000AF078A3731F481E090E09093070780936F
:1020C00006078091060790910707892B51F30E941C
:1020D000EE1A109252071092510783E395E00E9486
:1020E000C41A8DE090E00E94E71A0E9406078091D2
:1020F000AF070E94200D8091510790915207892BC4
:10210000D1F38091AF070E94200D08950E948D1396
:1021100008950E94EE1A85E392E00E94C41A8DE0B1
:1021200090E00E94E71A84E690E00E9447058091C3
:102130000A0790910B07892B09F076C08091580708
:10214000909159079093B7078093B6078CE090E081
:102150000E94770780938F0790E06091B607709197
:10216000B7078617970761F08CE090E00E946B0735
:102170008DE090E00E94E71A82E095E00E94C41A88
:1021800010920707109206078DE090E00E94E71A70
:102190008DE092E00E94C41A8091B6079091B70733
:1021A0000E94CE0681E196E00E94C41A8DE090E084
:1021B0000E94E71A8FE895E00E94C41A10C08FE3CE
:1021C0009CE90197F1F700C000008091AF078A37C2
:1021D00031F481E090E090930707809306078091A7
:1021E000060790910707892B51F30E94EE1A10926F
:1021F00052071092510783E395E00E94C41A8DE0C4
:1022000090E00E94E71A0E9406078091AF070E94A3
:10221000200D8091510790915207892BD1F3809125
:10222000AF070E94200D08950E948D1308950E940B
:10223000EE1A8AEE91E00E94C41A8DE090E00E94AE
:10224000E71A84E690E00E94470580910A07909182
:102250000B07892B09F076C0809158079091590798
:102260009093C9078093C8078EE090E00E9477079B
:1022700080938F0790E06091C8077091C907861717
:10228000970761F08EE090E00E946B078DE090E090
:102290000E94E71A82E095E00E94C41A1092070794
:1022A000109206078DE090E00E94E71A86EC91E01C
:1022B0000E94C41A8091C8079091C9070E94CE0657
:1022C00084E196E00E94C41A8DE090E00E94E71A33
:1022D0008FE895E00E94C41A10C08FE39CE9019733
:1022E000F1F700C000008091AF078A3731F481E038
:1022F00090E09093070780930607809106079091DE
:102300000707892B51F30E94EE1A10925207109280
:10231000510783E395E00E94C41A8DE090E00E948B
:10232000E71A0E9406078091AF070E94200D809156
:10233000510790915207892BD1F38091AF070E94EA
:10234000200D08950E948D1308950E94EE1A83EACD
:1023500091E00E94C41A8DE090E00E94E71A84E6A2
:1023600090E00E94470580910A0790910B07892B06
:1023700009F076C0809158079091590790939F0774
:1023800080939E0780E190E00E94770780938F07FB
:1023900090E060919E0770919F078617970761F004
:1023A00080E190E00E946B078DE090E00E94E71AC8
:1023B00082E095E00E94C41A109207071092060767
:1023C0008DE090E00E94E71A8FE791E00E94C41A26
:1023D00080919E0790919F070E94CE0684E196E02F
:1023E0000E94C41A8DE090E00E94E71A8FE895E001
:1023F0000E94C41A10C08FE39CE90197F1F700C056
:1024000000008091AF078A3731F481E090E090932B
:102410000707809306078091060790910707892B8D
:1024200051F30E94EE1A109252071092510783E363
:1024300095E00E94C41A8DE090E00E94E71A0E9485
:1024400006078091AF070E94200D8091510790915F
:102450005207892BD1F38091AF070E94200D089578
:102460000E948D1308950E94EE1A80E691E00E946A
:10247000C41A8DE090E00E94E71A84E690E00E9482
:10248000470580910A0790910B07892B09F076C0C8
:10249000809158079091590790939D0780939C07CE
:1024A00082E190E00E94770780938F0790E060912F
:1024B0009C0770919D078617970761F082E190E075
:1024C0000E946B078DE090E00E94E71A82E095E0A1
:1024D0000E94C41A10920707109206078DE090E040
:1024E0000E94E71A80E491E00E94C41A80919C0740
:1024F00090919D070E94CE068AE196E00E94C41A40
:102500008DE090E00E94E71A8FE895E00E94C41ADF
:1025100010C08FE39CE90197F1F700C000008091A3
:10252000AF078A3731F481E090E0909307078093FA
:1025300006078091060790910707892B51F30E94A7
:10254000EE1A109252071092510783E395E00E9411
:10255000C41A8DE090E00E94E71A0E94060780915D
:10256000AF070E94200D8091510790915207892B4F
:10257000D1F38091AF070E94200D08950E948D1322
:10258000089510920707109206070E94EE1A81E242
:1025900091E00E94C41A8DE090E00E94E71A84E660
:1025A00090E00E94470580910A0790910B07892BC4
:1025B00009F076C080915807909159079093990738
:1025C0008093980784E190E00E94770780938F07BB
:1025D00090E060919807709199078617970761F0CE
:1025E00084E190E00E946B078DE090E00E94E71A82
:1025F00082E095E00E94C41A109207071092060725
:102600008DE090E00E94E71A81E091E00E94C41AF8
:1026100080919807909199070E94CE068AE196E0F2
:102620000E94C41A8DE090E00E94E71A8FE895E0BE
:102630000E94C41A10C08FE39CE90197F1F700C013
:1026400000008091AF078A3731F481E090E09093E9
:102650000707809306078091060790910707892B4B
:1026600051F30E94EE1A109252071092510783E321
:1026700095E00E94C41A8DE090E00E94E71A0E9443
:1026800006078091AF070E94200D8091510790911D
:102690005207892BD1F38091AF070E94200D089536
:1026A0000E948D1308951092520710925107809145
:1026B000AF070E94990C8091510790915207892B86
:1026C000D1F38091AF070E94990C08950E94EE1AF1
:1026D00083E695E00E94C41A8DE090E00E94E71A1C
:1026E000109252071092510784E696E00E94C41A95
:1026F0008DE090E00E94E71A0E9406078091AF07E4
:102700000E94200D8091510790915207892BD1F39F
:102710008091AF070E94200D089582E896E00E9404
:10272000C41A0E9406078091AF070E94200D809175
:10273000510790915207892BD1F38091AF070E94E6
:10274000200D089580E70E94850181E00E944302E8
:1027500081E00E94AE0182EF94E00E948D0284E449
:102760000E94AE018EEA96E00E948D028EEA95E00C
:102770000E948D020895CF93DF9380E70E94850128
:1027800081E00E94430280E00E94AE0181E994E072
:102790000E948D0287E40E94AE018EEA96E00E94BC
:1027A0008D028BEA95E00E948D02CEE0D0E010C051
:1027B0008C2F0E94AE0188E10E9443022FEF81EE30
:1027C00094E0215080409040E1F700C00000219645
:1027D000C131D1056CF3DF91CF910895CF93DF9391
:1027E00080E70E94850181E00E94430280E00E9410
:1027F000AE0189E694E00E948D028EE50E94AE0152
:102800008EEA96E00E948D028BEA95E00E948D028E
:10281000CEE0D0E010C08C2F0E94AE0188E10E9473
:1028200043022FEF81EE94E0215080409040E1F789
:1028300000C000002196C932D1056CF3DF91CF9121
:102840000895CF93DF9380E70E94850180E00E9486
:10285000430281E00E94AE0186E594E00E948D0271
:1028600087E40E94AE018EEA96E00E948D028BEA18
:1028700095E00E948D02CEE0D0E010C08C2F0E9427
:10288000AE0188E10E9443022FEF81EE94E02150D7
:1028900080409040E1F700C000002196C131D10591
:1028A0006CF3DF91CF910895CF93DF9380E70E947F
:1028B000850180E00E94430281E00E94AE018EE229
:1028C00094E00E948D028DE50E94AE018EEA96E0B2
:1028D0000E948D028BEA95E00E948D02CEE0D0E04E
:1028E00010C08C2F0E94AE0188E10E9443022FEF9E
:1028F00081EE94E0215080409040E1F700C000005C
:102900002196C732D1056CF3DF91CF910895CF9313
:10291000DF9380E70E94850181E00E94430280E00E
:102920000E94AE0183E194E00E948D028EE40E9439
:10293000AE018EEA96E00E948D0286EA95E00E9442
:102940008D02CEE0D0E010C08C2F0E94AE0188E155
:102950000E9443022FEF81EE94E02150804090408E
:10296000E1F700C000002196C931D1056CF3DF9179
:10297000CF910895CF93DF9381E00E94430280E0DE
:102980000E94AE0188EF93E00E948D028EE40E94C7
:10299000AE018EEA96E00E948D0286EA95E00E94E2
:1029A0008D02CEE0D0E010C08C2F0E94AE0188E1F5
:1029B0000E9443022FEF81EE94E02150804090402E
:1029C000E1F700C000002196C931D1056CF3DF9119
:1029D000CF910895CF93DF9380E70E94850181E036
:1029E0000E94430280E00E94AE0181EE93E00E94CB
:1029F0008D028AE40E94AE018EEA96E00E948D026A
:102A000081EA95E00E948D02CEE0D0E010C08C2FCC
:102A10000E94AE0188E10E9443022FEF81EE94E014
:102A2000215080409040E1F700C000002196C6315F
:102A3000D1056CF3DF91CF910895CF93DF9380E7B9
:102A40000E94850181E00E94430280E00E94AE0165
:102A50008AEC93E00E948D028AE40E94AE018EEA25
:102A600096E00E948D0281EA95E00E948D02CEE000
:102A7000D0E010C08C2F0E94AE0188E10E9443027A
:102A80002FEF81EE94E0215080409040E1F700C0AC
:102A900000002196C631D1056CF3DF91CF910895E6
:102AA000E82F8091510790915207019709F0DAC4FD
:102AB0008E2F90E0FC01E554F109E633F10508F0B2
:102AC000A1C4E659FF4F0C94421C109207071092C4
:102AD00006070E94EE1A8AE993E00E94C41A8091C8
:102AE0002608909127080E94CE068EEA95E00E9463
:102AF000C41A8DE090E00E94E71A81E595E00E94FB
:102B0000C41A88EB97E00E94C41A8EEA95E00E94EE
:102B1000C41A0E94A2138DE090E00E94E71A8FE889
:102B200095E00E94C41A10C08FE39CE90197F1F769
:102B300000C000008091AF078A3731F481E090E057
:102B400090930707809306078091060790910707E7
:102B5000019751F70E94EE1A1092520710925107F6
:102B600088E195E00E94C41A8DE090E00E94E71A87
:102B70000E94060710925207109251078091AF07EA
:102B80000E9450158091510790915207892BD1F3E3
:102B90008091AF070E945015089510920707109278
:102BA00006070E94EE1A83E593E00E94C41A809102
:102BB000CE079091CF070E94CE068EEA95E00E9444
:102BC000C41A8DE090E00E94E71A8FE895E00E9419
:102BD000C41A10C08FE39CE90197F1F700C0000010
:102BE0008091AF078A3731F481E090E09093070736
:102BF000809306078091060790910707019751F788
:102C00000E94EE1A109252071092510788E195E047
:102C10000E94C41A8DE090E00E94E71A0E94060705
:102C200010925207109251078091AF070E945015E1
:102C30008091510790915207892BD1F38091AF0772
:102C40000E945015089510920707109206070E94DF
:102C5000EE1A8FEF92E00E94C41A8091AB07909118
:102C6000AC070E94CE068EEA95E00E94C41A8DE061
:102C700090E00E94E71A8FE895E00E94C41A10C005
:102C80008FE39CE90197F1F700C000008091AF0746
:102C90008A3731F481E090E090930707809306072C
:102CA0008091060790910707019751F70E94EE1A4D
:102CB000109252071092510788E195E00E94C41AC1
:102CC0008DE090E00E94E71A0E94060710925207DA
:102CD000109251078091AF070E94501580915107C3
:102CE00090915207892BD1F38091AF070E94501524
:102CF000089510920707109206070E94EE1A8EECB4
:102D000092E00E94C41A80915C0790915D070E9436
:102D1000CE068BEA95E00E94C41A8DE090E00E94F6
:102D2000E71A81E595E00E94C41A84EA97E00E94C0
:102D3000C41A8BEA95E00E94C41A0E94BB138DE06E
:102D400090E00E94E71A8FE895E00E94C41A10C034
:102D50008FE39CE90197F1F700C000008091AF0775
:102D60008A3731F481E090E090930707809306075B
:102D70008091060790910707019751F781E00E9423
:102D800043020E94EE1A109252071092510788E1F6
:102D900095E00E94C41A8DE090E00E94E71A0E941C
:102DA000060782E00E94AE0182EB95E00E948D0250
:102DB00010925207109251078091AF070E94501550
:102DC0008091510790915207892BD1F38091AF07E1
:102DD0000E945015089510920707109206070E944E
:102DE000EE1A8FE892E00E94C41A80915E079091DB
:102DF0005F070E94CE068BEA95E00E94C41A8DE020
:102E000090E00E94E71A81E595E00E94C41A8BEADF
:102E100095E00E94C41A0E94EE138DE090E00E949B
:102E2000E71A8FE895E00E94C41A10C08FE39CE96E
:102E30000197F1F700C000008091AF078A3731F4A5
:102E400081E090E090930707809306078091060742
:102E500090910707019751F781E00E9443020E9479
:102E6000EE1A109252071092510788E195E00E94E5
:102E7000C41A8DE090E00E94E71A0E94060782E0E3
:102E80000E94AE0182EB95E00E948D0210925207E3
:102E9000109251078091AF070E9450158091510701
:102EA00090915207892BD1F38091AF070E94501562
:102EB000089510920707109206070E94EE1A86E501
:102EC00092E00E94C41A8091D0079091D1070E948D
:102ED000CE068BEA95E00E94C41A8DE090E00E9435
:102EE000E71A81E595E00E94C41A8BEA95E00E94FA
:102EF000C41A0E9421148DE090E00E94E71A8FE826
:102F000095E00E94C41A10C08FE39CE90197F1F785
:102F100000C000008091AF078A3731F481E090E073
:102F20009093070780930607809106079091070703
:102F3000019751F781E00E9443020E94EE1A10921D
:102F400052071092510788E195E00E94C41A8DE063
:102F500090E00E94E71A0E94060782E00E94AE01FC
:102F600082EB95E00E948D02109252071092510759
:102F70008091AF070E9450158091510790915207A0
:102F8000892BD1F38091AF070E94501508951092BC
:102F90000707109206070E94EE1A8DE092E00E9449
:102FA000C41A8091B6079091B7070E94CE068BEAAB
:102FB00095E00E94C41A8DE090E00E94E71A81E536
:102FC00095E00E94C41A8BEA95E00E94C41A0E9400
:102FD00054148DE090E00E94E71A8FE895E00E947B
:102FE000C41A10C08FE39CE90197F1F700C00000FC
:102FF0008091AF078A3731F481E090E09093070722
:10300000809306078091060790910707019751F773
:1030100081E00E9443020E94EE1A10925207109221
:10302000510788E195E00E94C41A8DE090E00E946B
:10303000E71A0E94060782E00E94AE0182EB95E04B
:103040000E948D0210925207109251078091AF0793
:103050000E9450158091510790915207892BD1F30E
:103060008091AF070E9450150895109207071092A3
:1030700006070E94EE1A86EC91E00E94C41A809125
:10308000C8079091C9070E94CE0686EA95E00E9483
:10309000C41A8DE090E00E94E71A81E595E00E9455
:1030A000C41A86EA95E00E94C41A0E9487148DE033
:1030B00090E00E94E71A8FE895E00E94C41A10C0C1
:1030C0008FE39CE90197F1F700C000008091AF0702
:1030D0008A3731F481E090E09093070780930607E8
:1030E0008091060790910707019751F781E00E94B0
:1030F00043020E94EE1A109252071092510788E183
:1031000095E00E94C41A8DE090E00E94E71A0E94A8
:10311000060782E00E94AE0182EB95E00E948D02DC
:1031200010925207109251078091AF070E945015DC
:103130008091510790915207892BD1F38091AF076D
:103140000E945015089510920707109206070E94DA
:10315000EE1A8FE791E00E94C41A80919E07909129
:103160009F070E94CE0686EA95E00E94C41A8DE071
:1031700090E00E94E71A81E595E00E94C41A86EA71
:1031800095E00E94C41A0E94BA148DE090E00E945B
:10319000E71A8FE895E00E94C41A10C08FE39CE9FB
:1031A0000197F1F700C000008091AF078A3731F432
:1031B00081E090E0909307078093060780910607CF
:1031C00090910707019751F781E00E9443020E9406
:1031D000EE1A109252071092510788E195E00E9472
:1031E000C41A8DE090E00E94E71A0E94060782E070
:1031F0000E94AE0182EB95E00E948D021092520770
:10320000109251078091AF070E945015809151078D
:1032100090915207892BD1F38091AF070E945015EE
:10322000089510920707109206070E94EE1A80E494
:1032300091E00E94C41A80919C0790919D070E9482
:10324000CE0681EA95E00E94C41A8DE090E00E94CB
:10325000E71A81E595E00E94C41A81EA95E00E9490
:10326000C41A0E94EA148DE090E00E94E71A8FE8E9
:1032700095E00E94C41A10C08FE39CE90197F1F712
:1032800000C000008091AF078A3731F481E090E000
:103290009093070780930607809106079091070790
:1032A000019751F781E00E9443020E94EE1A1092AA
:1032B00052071092510788E195E00E94C41A8DE0F0
:1032C00090E00E94E71A0E94060782E00E94AE0189
:1032D00082EB95E00E948D021092520710925107E6
:1032E0008091AF070E94501580915107909152072D
:1032F000892BD1F38091AF070E9450150895109249
:103300000707109206070E94EE1A81E091E00E94E2
:10331000C41A80919807909199070E94CE0681EA7D
:1033200095E00E94C41A8DE090E00E94E71A81E5C2
:1033300095E00E94C41A81EA95E00E94C41A0E9496
:103340001D158DE090E00E94E71A8FE895E00E943D
:10335000C41A10C08FE39CE90197F1F700C0000088
:103360008091AF078A3731F481E090E090930707AE
:10337000809306078091060790910707019751F700
:1033800081E00E9443020E94EE1A109252071092AE
:10339000510788E195E00E94C41A8DE090E00E94F8
:1033A000E71A0E94060782E00E94AE0182EB95E0D8
:1033B0000E948D0210925207109251078091AF0720
:1033C0000E9450158091510790915207892BD1F39B
:1033D0008091AF070E94501508950E94EE1A81E077
:1033E0000E94430282E00E94AE0182EB95E00E94BF
:1033F0008D020E94F31A0E94FC1A1092520710923A
:10340000510708950E94EE1A83E695E00E94C41ABF
:103410008DE090E00E94E71A81E00E94430282E082
:103420000E94AE0182EB95E00E948D02109252073D
:103430001092510788E195E00E94C41A8DE090E057
:103440000E94E71A0E9406078091AF070E9450155C
:103450008091510790915207892BD1F38091AF074A
:103460000E94501508951092C00088E98093C10011
:1034700086E08093C20087E690E09093C500809339
:10348000C4000E943C010E9447010E94F31A0E945E
:10349000FC1A80E70E9485010E94C20282E00E941D
:1034A000AE0182EB95E00E948D0278940E94E102C9
:1034B00080915107909152070197C1F78091AF0712
:1034C000813319F0823391F0F1CF109252071092AC
:1034D00051070E94990C8091510790915207892BB6
:1034E000D1F38091AF070E94990CE0CF0E94EE1AB1
:1034F00081E00E94430282E00E94AE0182EB95E0EF
:103500000E948D02109252071092510788E195E0B7
:103510000E94C41A8DE090E00E94E71A0E940607FC
:1035200010925207109251078091AF070E945015D8
:103530008091510790915207892BD1F38091AF0769
:103540000E945015B3CF1F920F920FB60F92112405
:103550008F939F938091CC079091CD070C9724F087
:103560001092CD071092CC078091CC079091CD0797
:1035700001969093CD078093CC079F918F910F90E8
:103580000FBE0F901F901895DC01FC0101900020E8
:10359000E9F73197E81BF90BF0931707E09316074B
:1035A00020E030E00CC0FD01E20FF31F908190930A
:1035B000C6009091C00095FFFCCF2F5F3F4F409118
:1035C000160750911707241735076CF30895809359
:1035D000C6008091C00085FFFCCF08958CE090E08C
:1035E0000E94E71A089583EB96E00E94C41A8DE0CA
:1035F00090E00E94E71A08958BEC96E00E94C41AAE
:103600008DE090E00E94E71A8DED96E00E94C41ACA
:103610008DE090E00E94E71A82EF96E00E94C41AC3
:103620000895E89409C097FB3EF4909580957095B5
:1036300061957F4F8F4F9F4F9923A9F0F92F96E9FE
:10364000BB279395F695879577956795B795F11173
:10365000F8CFFAF4BB0F11F460FF1BC06F5F7F4F10
:103660008F4F9F4F16C0882311F096E911C0772322
:1036700021F09EE8872F762F05C0662371F096E82B
:10368000862F70E060E02AF09A95660F771F881FFA
:10369000DAF7880F9695879597F9089597F99F67B8
:1036A00080E870E060E008959FEF80EC08950024CA
:1036B0000A941616170618060906089500240A9497
:1036C00012161306140605060895092E0394000C1D
:1036D00011F4882352F0BB0F40F4BF2B11F460FFAC
:1036E00004C06F5F7F4F8F4F9F4F089557FD9058D5
:1036F000440F551F59F05F3F71F04795880F97FBB6
:10370000991F61F09F3F79F087950895121613066F
:103710001406551FF2CF4695F1DF08C0161617069E
:103720001806991FF1CF86957105610508940895D3
:10373000E894BB2766277727CB0197F908950E9465
:10374000B21B0C94651B0E94571B38F00E945E1B35
:1037500020F0952311F00C944E1B0C94541B112453
:103760000C94991B0E94761B70F3959FC1F3950FE3
:1037700050E0551F629FF001729FBB27F00DB11DF5
:10378000639FAA27F00DB11DAA1F649F6627B00D85
:10379000A11D661F829F2227B00DA11D621F739F6E
:1037A000B00DA11D621F839FA00D611D221F749F7C
:1037B0003327A00D611D231F849F600D211D822FC3
:1037C000762F6A2F11249F5750409AF0F1F08823EA
:1037D0004AF0EE0FFF1FBB1F661F771F881F915017
:1037E0005040A9F79E3F510580F00C944E1B0C945D
:1037F000991B5F3FE4F3983ED4F3869577956795E0
:10380000B795F795E7959F5FC1F7FE2B880F911D40
:103810009695879597F9089597FB072E16F40094CF
:1038200007D077FD09D00E94531C07FC05D03EF459
:10383000909581959F4F0895709561957F4F08955C
:10384000A1E21A2EAA1BBB1BFD010DC0AA1FBB1FA4
:10385000EE1FFF1FA217B307E407F50720F0A21B16
:10386000B30BE40BF50B661F771F881F991F1A9483
:1038700069F760957095809590959B01AC01BD01AD
:10388000CF010895EE0FFF1F0590F491E02D0994EC
:103890000E94671CA59F900DB49F900DA49F800D62
:1038A000911D11240895AA1BBB1B51E107C0AA1F3B
:1038B000BB1FA617B70710F0A61BB70B881F991FD1
:1038C0005A95A9F780959095BC01CD010895A29FC6
:1038D000B001B39FC001A39F700D811D1124911DE4
:1038E000B29F700D811D1124911D0895EF920F93C9
:1038F0001F93CF93DF93E80147FD02C034E001C07E
:1039000034E1042E000C550B57FF03C0519541952F
:103910005109E32E022F242FAE010E94961CCE01E6
:10392000DF91CF911F910F91EF900895A9E0B0E042
:10393000ECE9FCE10C94CE1E6A01122FB02E2BE3B1
:10394000201720F0FF24F394F00E02C02CE3F22E97
:103950000F2D27E0AE014F5F5F4F0E94F01DBC01AD
:103960004981842F8970813031F0E1FC06C0E0FE8E
:1039700006C090E205C09DE203C09BE201C090E05A
:103980005E2D507143FF3CC0911102C083E001C025
:1039900084E0811718F4212F281B01C020E0511169
:1039A0000BC0F601822F30E2882319F03193815049
:1039B000FBCFC20ED11C20E0992329F0D6019C93A5
:1039C000F60131966F01C6010396E2FE0AC03EE49D
:1039D000D6013C9341E411964C93119712963C9377
:1039E00006C03EE6F601308341E641833283FC01A6
:1039F000322F40E2332309F442C041933150FACFD1
:103A000042FF44C0911102C083E001C084E08117ED
:103A100018F4212F281B01C020E051110BC0F60122
:103A2000822F30E2882319F031938150FBCFC20EF0
:103A3000D11C20E0992329F0D6019C93F601319600
:103A40006F01C6010396E2FE0BC039E4D6013C9338
:103A50003EE411963C93119736E412963C9307C0CE
:103A600039E6F60130833EE6318336E63283FC01E7
:103A7000322F40E2332319F041933150FBCFFC0148
:103A8000E20FF11D10828EEF9FEFA6C021E030E023
:103A9000911102C020E030E0161617061CF4FB015D
:103AA000319602C0E1E0F0E02E0F3F1FBB2021F075
:103AB000EB2DF0E0319602C0E0E0F0E02E0F3F1F6A
:103AC000E12FF0E02E173F071CF4121B212F01C03D
:103AD00020E08E2D887159F4F601822F30E2882380
:103AE00019F031938150FBCFC20ED11C20E09923F5
:103AF00029F0D6019C93F60131966F0151110BC04C
:103B0000F601822F90E3882319F091938150FBCF27
:103B1000C20ED11C20E00F2D060F9A81342F307178
:103B200044FF03C0913309F40150101624F4093006
:103B300018F008E001C001E0AB0177FF02C040E0EF
:103B400050E0FB01E41BF50BA1E0B0E0AC0FBD1FA2
:103B5000EA0FFB1F8EE2A82E4B01801A91080B2D55
:103B600010E01195019511094F3FBFEF5B0721F45C
:103B7000D601AC9211966D01641775072CF084166E
:103B8000950614F4818101C080E3415051093196BA
:103B9000D60111967D014017510724F0D6018C9370
:103BA0006701E2CF6417750739F4963320F4953333
:103BB00019F4311101C081E3F6018083F701822FEE
:103BC00090E2882319F091938150FBCFF701E20F27
:103BD000F11D108280E090E02996ECE00C94EA1E42
:103BE000283008F027E03327DA01990F311D87FDCF
:103BF000916000966105710539F432602E5F3D9346
:103C000030E32A95E1F708959F3F30F08038710541
:103C1000610509F03C5F3C5F3D93913008F080689E
:103C2000911DDF93CF931F930F93FF92EF92192F64
:103C3000987F9695E92F96959695E90FFF27E6567A
:103C4000FE4F99273327EE24FF24A701E7010590B3
:103C50000894079428F4360FE71EF81E491F511DDB
:103C6000660F771F881F991F0694A1F70590079488
:103C700028F4E70EF81E491F561FC11D770F881F35
:103C8000991F661F0694A1F70590079428F4F80E73
:103C9000491F561FC71FD11D880F991F661F771F09
:103CA0000694A1F70590079420F4490F561FC71FEB
:103CB000D81F990F661F771F881F0694A9F7849154
:103CC0001095177041F0D695C79557954795F7947D
:103CD000E7941A95C1F7E0E4F1E068941590159126
:103CE00035916591959105907FE27395E118F10A00
:103CF000430B560BC90BD009C0F7E10CF11E431F53
:103D0000561FC91FD01D7EF4703311F48A95E6CF7B
:103D1000E894015030F0080F0AF40027021708F465
:103D2000202F2395022F7A3328F079E37D932A956B
:103D3000E9F710C07D932A9589F6069497956795C3
:103D4000379517951794E118F10A430B560BC90BD9
:103D5000D00998F023957E9173957A3308F070E33B
:103D60007C932013B8F77E9170617D9330F083953A
:103D700071E37D9370E32A95E1F71124EF90FF90B2
:103D80000F911F91CF91DF91992787FD909508950D
:103D90002F923F924F925F926F927F928F929F925B
:103DA000AF92BF92CF92DF92EF92FF920F931F9349
:103DB000CF93DF93CDB7DEB7CA1BDB0B0FB6F894FA
:103DC000DEBF0FBECDBF09942A88398848885F843A
:103DD0006E847D848C849B84AA84B984C884DF80AB
:103DE000EE80FD800C811B81AA81B981CE0FD11D8F
:103DF0000FB6F894DEBF0FBECDBFED010895F89465
:023E0000FFCFF2
:103E0200EE4C756D696E6F7369646164206D696EE5
:103E1200696D61207365746561646120656E3A2025
:103E22000056616C6F72206465206C61206C756D48
:103E3200696E6F7369646164206D696E696D61009A
:103E42004C756D696E6F7369646164206D61786928
:103E52006D61207365746561646120656E3A20004E
:103E620056616C6F72206465206C61206C756D699F
:103E72006E6F7369646164206D6178696D6100566B
:103E8200656C2E206D696E696D612064656C2076AB
:103E920069656E746F207365746561646120656E17
:103EA2003A200056616C6F72206465206C61207646
:103EB200656C2E206D696E696D612064656C20767B
:103EC20069656E746F0056656C2E206D6178696D40
:103ED200612064656C207669656E746F2073657409
:103EE2006561646120656E3A200056616C6F7220D4
:103EF2006465206C612076656C2E206D6178696D39
:103F0200612064656C207669656E746F0048697320
:103F1200742E206465206C612068756D2E206465A6
:103F22006C207375656C6F207365746561646120C4
:103F3200656E3A200056616C6F7220686973742E48
:103F4200206465206C612068756D2E2064656C208C
:103F52007375656C6F0048756D2E2064656C2073F7
:103F620075656C6F207365746561646120656E3A76
:103F7200200056616C6F722070617261206C61204A
:103F820068756D2E2064656C207375656C6F0048D2
:103F92006973742E206465206C612068756D2E2013
:103FA2007365746561646120656E3A200056616CC8
:103FB2006F7220686973742E206465206C612068BA
:103FC200756D2E20616D6269656E74616C00487555
:103FD2006D2E20616D6269656E74616C207365740B
:103FE2006561646120656E3A200056616C6F7220D3
:103FF20068756D2E20616D6269656E74616C005624
:10400200616C6F722070726F706F7263696F6E6134
:104012006C2064652074656D70657261747572617F
:10402200207365746561646120656E3A2000566193
:104032006C6F722070726F706F7263696F6E616CF9
:10404200206465206C612074656D706572617475A1
:10405200726100486973742E207061726120746508
:104062006D706572617475726120736574656164E7
:104072006120656E3A200056616C6F722070617229
:104082006120686973742E206465206C61207465F8
:104092006D70657261747572610054656D706572E0
:1040A2006174757261207365746561646120656E07
:1040B2003A200056616C6F722070617261207465E3
:1040C2006D70657261747572610065202D204C758A
:1040D2006D696E6F7369646164206D696E696D618B
:1040E2000045202D204C756D696E6F7369646164A3
:1040F200206D6178696D610076202D2056656C2EE9
:10410200206D696E696D612064656C207669656EEB
:10411200746F0056202D2056656C2E206D617869D3
:104122006D612064656C207669656E746F00732022
:104132002D20486973742E2064656C20636F6E7441
:10414200726F6C2064652068756D2E2064656C202A
:104152007375656C6F0053202D2048756D2E206499
:10416200656C207375656C6F0068202D204869733B
:10417200742E2064656C20636F6E74726F6C2064A1
:10418200652068756D2E20616D6269656E74616C63
:104192000048202D2048756D2E20616D6269656E84
:1041A20074616C006B202D2047616E616E636961E2
:1041B2002070726F706F7263696F6E616C206465DC
:1041C2002074656D70657261747572610074202D62
:1041D20020486973742E2064656C20636F6E74725C
:1041E2006F6C2064652074656D70657261747572A0
:1041F200610054202D2054656D7065726174757272
:1042020061002753652061637475616C697A6F2060
:10421200454550524F4D270053656C656363696F86
:104222006E65207661726961626C652061206C65E1
:1042320065720053656C656363696F6E65207061BA
:1042420072616D6574726F20612063617267617261
:10425200004D65646963696F6E2061637475616C9A
:104262003A20005465636C6120696E636F727265F7
:10427200637461005265696E677265736520766169
:104282006C6F720071202D20496E6963696F007A2C
:10429200202D204D656E7520616E746572696F7296
:1042A20000206C757800206D2F730020250020B04F
:1042B200430056697665726F20322E30004E6F20B1
:1042C200736520696E6772657361726F6E206461D7
:1042D200746F73004461746F20696E6772657361F5
:1042E200646F2066756572612064652072616E6715
:1042F2006F00436172676120646520746F646F733D
:10430200206C6F732076616C6F7265730020BA4304
:1043120000202500206B6D2F6800204C555800436B
:10432200617267612076616C6F72657320646520CB
:1043320073656E736F7265730041202D20546F6434
:104342006F73206C6F732076616C6F7265730049B6
:10435200202D2056616C6F722065737065636966EB
:1043620069636F0053656C656363696F6E65207086
:104372006172616D6574726F206120636172676141
:10438200720053656C656363696F6E65206E756557
:1043920076616D656E746520656C20706172616D09
:1043A2006574726F20612063617267617200746567
:1043B2006D70004269656E76656E69646F732C205C
:1043C20056495645524F20322E3000416363696F81
:1043D2006E2061207265616C697A61720031202DF4
:1043E20020436172676120706172616D6574726FE2
:1043F200730032202D204461746F732061637475E1
:06440200616C657300000F
:00000001FF
